{
  "contractName": "SimpleCrowdfund",
  "abi": [
    {
      "constant": true,
      "inputs": [],
      "name": "name",
      "outputs": [
        {
          "name": "",
          "type": "string"
        }
      ],
      "payable": false,
      "stateMutability": "view",
      "type": "function",
      "signature": "0x06fdde03"
    },
    {
      "constant": false,
      "inputs": [
        {
          "name": "_spender",
          "type": "address"
        },
        {
          "name": "_value",
          "type": "uint256"
        }
      ],
      "name": "approve",
      "outputs": [
        {
          "name": "",
          "type": "bool"
        }
      ],
      "payable": false,
      "stateMutability": "nonpayable",
      "type": "function",
      "signature": "0x095ea7b3"
    },
    {
      "constant": true,
      "inputs": [],
      "name": "totalSupply",
      "outputs": [
        {
          "name": "",
          "type": "uint256"
        }
      ],
      "payable": false,
      "stateMutability": "view",
      "type": "function",
      "signature": "0x18160ddd"
    },
    {
      "constant": false,
      "inputs": [
        {
          "name": "_from",
          "type": "address"
        },
        {
          "name": "_to",
          "type": "address"
        },
        {
          "name": "_value",
          "type": "uint256"
        }
      ],
      "name": "transferFrom",
      "outputs": [
        {
          "name": "",
          "type": "bool"
        }
      ],
      "payable": false,
      "stateMutability": "nonpayable",
      "type": "function",
      "signature": "0x23b872dd"
    },
    {
      "constant": true,
      "inputs": [],
      "name": "decimals",
      "outputs": [
        {
          "name": "",
          "type": "uint8"
        }
      ],
      "payable": false,
      "stateMutability": "view",
      "type": "function",
      "signature": "0x313ce567"
    },
    {
      "constant": true,
      "inputs": [
        {
          "name": "_owner",
          "type": "address"
        }
      ],
      "name": "balanceOf",
      "outputs": [
        {
          "name": "balance",
          "type": "uint256"
        }
      ],
      "payable": false,
      "stateMutability": "view",
      "type": "function",
      "signature": "0x70a08231"
    },
    {
      "constant": false,
      "inputs": [],
      "name": "renounceOwnership",
      "outputs": [],
      "payable": false,
      "stateMutability": "nonpayable",
      "type": "function",
      "signature": "0x715018a6"
    },
    {
      "constant": true,
      "inputs": [],
      "name": "owner",
      "outputs": [
        {
          "name": "",
          "type": "address"
        }
      ],
      "payable": false,
      "stateMutability": "view",
      "type": "function",
      "signature": "0x8da5cb5b"
    },
    {
      "constant": true,
      "inputs": [],
      "name": "isOwner",
      "outputs": [
        {
          "name": "",
          "type": "bool"
        }
      ],
      "payable": false,
      "stateMutability": "view",
      "type": "function",
      "signature": "0x8f32d59b"
    },
    {
      "constant": true,
      "inputs": [],
      "name": "symbol",
      "outputs": [
        {
          "name": "",
          "type": "string"
        }
      ],
      "payable": false,
      "stateMutability": "view",
      "type": "function",
      "signature": "0x95d89b41"
    },
    {
      "constant": false,
      "inputs": [
        {
          "name": "_to",
          "type": "address"
        },
        {
          "name": "_value",
          "type": "uint256"
        }
      ],
      "name": "transfer",
      "outputs": [
        {
          "name": "",
          "type": "bool"
        }
      ],
      "payable": false,
      "stateMutability": "nonpayable",
      "type": "function",
      "signature": "0xa9059cbb"
    },
    {
      "constant": true,
      "inputs": [
        {
          "name": "_owner",
          "type": "address"
        },
        {
          "name": "_spender",
          "type": "address"
        }
      ],
      "name": "allowance",
      "outputs": [
        {
          "name": "",
          "type": "uint256"
        }
      ],
      "payable": false,
      "stateMutability": "view",
      "type": "function",
      "signature": "0xdd62ed3e"
    },
    {
      "constant": false,
      "inputs": [
        {
          "name": "newOwner",
          "type": "address"
        }
      ],
      "name": "transferOwnership",
      "outputs": [],
      "payable": false,
      "stateMutability": "nonpayable",
      "type": "function",
      "signature": "0xf2fde38b"
    },
    {
      "inputs": [
        {
          "name": "_maxSupply",
          "type": "uint256"
        },
        {
          "name": "_toMint",
          "type": "uint256"
        }
      ],
      "payable": false,
      "stateMutability": "nonpayable",
      "type": "constructor",
      "signature": "constructor"
    },
    {
      "payable": true,
      "stateMutability": "payable",
      "type": "fallback"
    },
    {
      "anonymous": false,
      "inputs": [
        {
          "indexed": true,
          "name": "_buyer",
          "type": "address"
        },
        {
          "indexed": false,
          "name": "_value",
          "type": "uint256"
        }
      ],
      "name": "TokenPurchase",
      "type": "event",
      "signature": "0xf4b351c7293f3c20fc9912c61adbe9823a6de3162bde18c98eb6feeae232f861"
    },
    {
      "anonymous": false,
      "inputs": [
        {
          "indexed": true,
          "name": "from",
          "type": "address"
        },
        {
          "indexed": true,
          "name": "to",
          "type": "address"
        },
        {
          "indexed": false,
          "name": "value",
          "type": "uint256"
        }
      ],
      "name": "Transfer",
      "type": "event",
      "signature": "0xddf252ad1be2c89b69c2b068fc378daa952ba7f163c4a11628f55a4df523b3ef"
    },
    {
      "anonymous": false,
      "inputs": [
        {
          "indexed": true,
          "name": "owner",
          "type": "address"
        },
        {
          "indexed": true,
          "name": "spender",
          "type": "address"
        },
        {
          "indexed": false,
          "name": "value",
          "type": "uint256"
        }
      ],
      "name": "Approval",
      "type": "event",
      "signature": "0x8c5be1e5ebec7d5bd14f71427d1e84f3dd0314c0f7b2291e5b200ac8c7c3b925"
    },
    {
      "anonymous": false,
      "inputs": [
        {
          "indexed": true,
          "name": "to",
          "type": "address"
        },
        {
          "indexed": false,
          "name": "amount",
          "type": "uint256"
        }
      ],
      "name": "Mint",
      "type": "event",
      "signature": "0x0f6798a560793a54c3bcfe86a93cde1e73087d944c0ea20544137d4121396885"
    },
    {
      "anonymous": false,
      "inputs": [
        {
          "indexed": true,
          "name": "previousOwner",
          "type": "address"
        },
        {
          "indexed": true,
          "name": "newOwner",
          "type": "address"
        }
      ],
      "name": "OwnershipTransferred",
      "type": "event",
      "signature": "0x8be0079c531659141344cd1fd0a4f28419497f9722a3daafe3b4186f6b6457e0"
    },
    {
      "constant": false,
      "inputs": [
        {
          "name": "_to",
          "type": "address"
        }
      ],
      "name": "buyTokens",
      "outputs": [
        {
          "name": "",
          "type": "bool"
        }
      ],
      "payable": true,
      "stateMutability": "payable",
      "type": "function",
      "signature": "0xec8ac4d8"
    },
    {
      "constant": true,
      "inputs": [],
      "name": "getRate",
      "outputs": [
        {
          "name": "",
          "type": "uint256"
        }
      ],
      "payable": false,
      "stateMutability": "view",
      "type": "function",
      "signature": "0x679aefce"
    }
  ],
  "bytecode": "0x60c0604052600a60808190527f544f4b454e204e414d450000000000000000000000000000000000000000000060a090815262000040916001919062000348565b506040805180820190915260068082527f53594d424f4c00000000000000000000000000000000000000000000000000006020909201918252620000879160029162000348565b506003805460ff1916905560006004556305f5e100600755348015620000ac57600080fd5b5060405160408062000f9c83398101806040526040811015620000ce57600080fd5b50805160209091015160008054600160a060020a0319163317808255604051600160a060020a039190911691907f8be0079c531659141344cd1fd0a4f28419497f9722a3daafe3b4186f6b6457e0908290a3600782905560088054600160a060020a031916339081179091556200014f908264010000000062000167810204565b15156200015b57600080fd5b505043600955620003ed565b60045460009062000187908364010000000062000a78620002cc82021704565b60048190556007541015620001fd57604080517f08c379a000000000000000000000000000000000000000000000000000000000815260206004820152601260248201527f6d617820737570706c7920726561636865640000000000000000000000000000604482015290519081900360640190fd5b600160a060020a03831660009081526006602052604090205462000230908364010000000062000a78620002cc82021704565b600160a060020a038416600081815260066020908152604091829020939093558051858152905191927f0f6798a560793a54c3bcfe86a93cde1e73087d944c0ea20544137d412139688592918290030190a2604080518381529051600160a060020a038516916000917fddf252ad1be2c89b69c2b068fc378daa952ba7f163c4a11628f55a4df523b3ef9181900360200190a350600192915050565b6000828201838110156200034157604080517f08c379a000000000000000000000000000000000000000000000000000000000815260206004820152601b60248201527f536166654d6174683a206164646974696f6e206f766572666c6f770000000000604482015290519081900360640190fd5b9392505050565b828054600181600116156101000203166002900490600052602060002090601f016020900481019282601f106200038b57805160ff1916838001178555620003bb565b82800160010185558215620003bb579182015b82811115620003bb5782518255916020019190600101906200039e565b50620003c9929150620003cd565b5090565b620003ea91905b80821115620003c95760008155600101620003d4565b90565b610b9f80620003fd6000396000f3fe608060405260043610610105576000357c010000000000000000000000000000000000000000000000000000000090048063715018a6116100a7578063a9059cbb11610076578063a9059cbb14610337578063dd62ed3e14610370578063ec8ac4d8146103ab578063f2fde38b146103d157610105565b8063715018a6146102c55780638da5cb5b146102dc5780638f32d59b1461030d57806395d89b411461032257610105565b806323b872dd116100e357806323b872dd1461020f578063313ce56714610252578063679aefce1461027d57806370a082311461029257610105565b806306fdde0314610111578063095ea7b31461019b57806318160ddd146101e8575b61010e33610404565b50005b34801561011d57600080fd5b50610126610577565b6040805160208082528351818301528351919283929083019185019080838360005b83811015610160578181015183820152602001610148565b50505050905090810190601f16801561018d5780820380516001836020036101000a031916815260200191505b509250505060405180910390f35b3480156101a757600080fd5b506101d4600480360360408110156101be57600080fd5b50600160a060020a038135169060200135610604565b604080519115158252519081900360200190f35b3480156101f457600080fd5b506101fd61060d565b60408051918252519081900360200190f35b34801561021b57600080fd5b506101d46004803603606081101561023257600080fd5b50600160a060020a03813581169160208101359091169060400135610613565b34801561025e57600080fd5b5061026761061c565b6040805160ff9092168252519081900360200190f35b34801561028957600080fd5b506101fd610625565b34801561029e57600080fd5b506101fd600480360360208110156102b557600080fd5b5035600160a060020a0316610671565b3480156102d157600080fd5b506102da61068c565b005b3480156102e857600080fd5b506102f16106f6565b60408051600160a060020a039092168252519081900360200190f35b34801561031957600080fd5b506101d4610705565b34801561032e57600080fd5b50610126610716565b34801561034357600080fd5b506101d46004803603604081101561035a57600080fd5b50600160a060020a03813516906020013561076e565b34801561037c57600080fd5b506101fd6004803603604081101561039357600080fd5b50600160a060020a0381358116916020013516610851565b6101d4600480360360208110156103c157600080fd5b5035600160a060020a0316610404565b3480156103dd57600080fd5b506102da600480360360208110156103f457600080fd5b5035600160a060020a0316610859565b600954600090615c30014310610464576040805160e560020a62461bcd02815260206004820152601760248201527f6e6f7420696e2063726f776466756e6420706572696f64000000000000000000604482015290519081900360640190fd5b600160a060020a038216151561047957600080fd5b6000610493610486610625565b349063ffffffff61087816565b905061049f83826108df565b15156104f5576040805160e560020a62461bcd02815260206004820152601960248201527f70726f626c656d206d696e74696e672074686520746f6b656e00000000000000604482015290519081900360640190fd5b600854604051600160a060020a03909116903480156108fc02916000818181858888f1935050505015801561052e573d6000803e3d6000fd5b50604080518281529051600160a060020a038516917ff4b351c7293f3c20fc9912c61adbe9823a6de3162bde18c98eb6feeae232f861919081900360200190a250600192915050565b60018054604080516020600284861615610100026000190190941693909304601f810184900484028201840190925281815292918301828280156105fc5780601f106105d1576101008083540402835291602001916105fc565b820191906000526020600020905b8154815290600101906020018083116105df57829003601f168201915b505050505081565b60015b92915050565b60045481565b60019392505050565b60035460ff1681565b6009546000906158480143111561063e5750600561066e565b60095461574e014311156106545750600661066e565b6009546156540143111561066a5750600761066e565b5060085b90565b600160a060020a031660009081526006602052604090205490565b610694610705565b151561069f57600080fd5b60008054604051600160a060020a03909116907f8be0079c531659141344cd1fd0a4f28419497f9722a3daafe3b4186f6b6457e0908390a36000805473ffffffffffffffffffffffffffffffffffffffff19169055565b600054600160a060020a031690565b600054600160a060020a0316331490565b6002805460408051602060018416156101000260001901909316849004601f810184900484028201840190925281815292918301828280156105fc5780601f106105d1576101008083540402835291602001916105fc565b6000600160a060020a038316151561078557600080fd5b336000908152600660205260409020548211156107a157600080fd5b336000908152600660205260409020546107c1908363ffffffff610a1816565b3360009081526006602052604080822092909255600160a060020a038516815220546107f3908363ffffffff610a7816565b600160a060020a0384166000818152600660209081526040918290209390935580518581529051919233927fddf252ad1be2c89b69c2b068fc378daa952ba7f163c4a11628f55a4df523b3ef9281900390910190a350600192915050565b600092915050565b610861610705565b151561086c57600080fd5b61087581610ad5565b50565b600082151561088957506000610607565b82820282848281151561089857fe5b04146108d85760405160e560020a62461bcd028152600401808060200182810382526021815260200180610b536021913960400191505060405180910390fd5b9392505050565b6004546000906108f5908363ffffffff610a7816565b60048190556007541015610953576040805160e560020a62461bcd02815260206004820152601260248201527f6d617820737570706c7920726561636865640000000000000000000000000000604482015290519081900360640190fd5b600160a060020a03831660009081526006602052604090205461097c908363ffffffff610a7816565b600160a060020a038416600081815260066020908152604091829020939093558051858152905191927f0f6798a560793a54c3bcfe86a93cde1e73087d944c0ea20544137d412139688592918290030190a2604080518381529051600160a060020a038516916000917fddf252ad1be2c89b69c2b068fc378daa952ba7f163c4a11628f55a4df523b3ef9181900360200190a350600192915050565b600082821115610a72576040805160e560020a62461bcd02815260206004820152601e60248201527f536166654d6174683a207375627472616374696f6e206f766572666c6f770000604482015290519081900360640190fd5b50900390565b6000828201838110156108d8576040805160e560020a62461bcd02815260206004820152601b60248201527f536166654d6174683a206164646974696f6e206f766572666c6f770000000000604482015290519081900360640190fd5b600160a060020a0381161515610aea57600080fd5b60008054604051600160a060020a03808516939216917f8be0079c531659141344cd1fd0a4f28419497f9722a3daafe3b4186f6b6457e091a36000805473ffffffffffffffffffffffffffffffffffffffff1916600160a060020a039290921691909117905556fe536166654d6174683a206d756c7469706c69636174696f6e206f766572666c6f77a165627a7a72305820e8e478203a360a5efe1ea5a5c86beab19e4732ebdeaeaf30449b17013ff923500029",
  "source": "\n\npragma solidity ^0.5.4;\n\nimport \"./SimpleToken.sol\";\n\ncontract SimpleCrowdfund is SimpleToken {\n\n    // Token purchase event\n    event TokenPurchase(address indexed _buyer, uint256 _value);\n\n    // OwnerWallet address, all ETH gets transfered to him automatically\n    address payable ownerWallet;\n    // StartBlock is the block where the contract gets mined\n    uint256 startBlock;\n\n    // Constructor function\n    constructor(uint256 _maxSupply, uint256 _toMint) public {\n        maxSupply = _maxSupply;\n        ownerWallet = msg.sender;\n        require(mint(msg.sender, _toMint));\n        startBlock = block.number;\n    }\n\n    // Function that actually buys the tokens\n    function buyTokens(address _to) public payable returns (bool) {\n        // Crowdsfund ends if current block number is above 2000\n        require(block.number < startBlock + 21600 + 2000, \"not in crowdfund period\");\n        // Ensure the address passed is valid\n        require(address(_to) != address(0));\n        // Get the amount of tokens\n        uint256 amount = msg.value.mul(getRate());\n        // Ensure the minting works\n        require(mint(_to, amount), \"problem minting the token\");\n        // Transfer to the owner wallet the ETH sent\n        ownerWallet.transfer(msg.value);\n        // Emist an event\n        emit TokenPurchase(_to, amount);\n        return true;\n    }\n\n    // GetRate returns the rate of the tokens based on the current block\n    function getRate() public view returns (uint256) {\n\n        if (block.number > (startBlock + 21600 + 1000)) {\n            return 5;\n        } else if (block.number > (startBlock + 21600 + 750)) {\n            return 6;\n        } else if (block.number > (startBlock + 21600 + 500)) {\n            return 7;\n        } else {\n            return 8;\n        }\n    }\n\n    // If user simply send ETH, call buy tokens with the message sender\n    function() external payable {\n        buyTokens(msg.sender);\n    }\n\n}\n\n",
  "sourcePath": "/home/dev43/blockchain/ethinitium/modules/dapp/simple_crowdfund_dapp/contracts/SimpleCrowdfund.sol",
  "compiler": {
    "name": "solc",
    "version": "0.5.4+commit.9549d8ff.Emscripten.clang"
  },
  "schemaVersion": "3.0.1",
  "updatedAt": "2019-06-05T16:20:13.643Z",
  "devdoc": {
    "methods": {
      "isOwner()": {
        "return": "true if `msg.sender` is the owner of the contract."
      },
      "owner()": {
        "return": "the address of the owner."
      },
      "renounceOwnership()": {
        "details": "Allows the current owner to relinquish control of the contract. It will not be possible to call the functions with the `onlyOwner` modifier anymore."
      },
      "transferOwnership(address)": {
        "details": "Allows the current owner to transfer control of the contract to a newOwner.",
        "params": {
          "newOwner": "The address to transfer ownership to."
        }
      }
    }
  },
  "userdoc": {
    "methods": {
      "renounceOwnership()": {
        "notice": "Renouncing ownership will leave the contract without an owner, thereby removing any functionality that is only available to the owner."
      }
    }
  }
}