{
  "contractName": "SimpleCrowdfund",
  "abi": [
    {
      "constant": true,
      "inputs": [],
      "name": "name",
      "outputs": [
        {
          "name": "",
          "type": "string"
        }
      ],
      "payable": false,
      "stateMutability": "view",
      "type": "function",
      "signature": "0x06fdde03"
    },
    {
      "constant": false,
      "inputs": [
        {
          "name": "_spender",
          "type": "address"
        },
        {
          "name": "_value",
          "type": "uint256"
        }
      ],
      "name": "approve",
      "outputs": [
        {
          "name": "",
          "type": "bool"
        }
      ],
      "payable": false,
      "stateMutability": "nonpayable",
      "type": "function",
      "signature": "0x095ea7b3"
    },
    {
      "constant": true,
      "inputs": [],
      "name": "totalSupply",
      "outputs": [
        {
          "name": "",
          "type": "uint256"
        }
      ],
      "payable": false,
      "stateMutability": "view",
      "type": "function",
      "signature": "0x18160ddd"
    },
    {
      "constant": false,
      "inputs": [
        {
          "name": "_from",
          "type": "address"
        },
        {
          "name": "_to",
          "type": "address"
        },
        {
          "name": "_value",
          "type": "uint256"
        }
      ],
      "name": "transferFrom",
      "outputs": [
        {
          "name": "",
          "type": "bool"
        }
      ],
      "payable": false,
      "stateMutability": "nonpayable",
      "type": "function",
      "signature": "0x23b872dd"
    },
    {
      "constant": true,
      "inputs": [],
      "name": "decimals",
      "outputs": [
        {
          "name": "",
          "type": "uint8"
        }
      ],
      "payable": false,
      "stateMutability": "view",
      "type": "function",
      "signature": "0x313ce567"
    },
    {
      "constant": false,
      "inputs": [
        {
          "name": "_to",
          "type": "address"
        },
        {
          "name": "_amount",
          "type": "uint256"
        }
      ],
      "name": "mint",
      "outputs": [
        {
          "name": "",
          "type": "bool"
        }
      ],
      "payable": false,
      "stateMutability": "nonpayable",
      "type": "function",
      "signature": "0x40c10f19"
    },
    {
      "constant": true,
      "inputs": [
        {
          "name": "_owner",
          "type": "address"
        }
      ],
      "name": "balanceOf",
      "outputs": [
        {
          "name": "balance",
          "type": "uint256"
        }
      ],
      "payable": false,
      "stateMutability": "view",
      "type": "function",
      "signature": "0x70a08231"
    },
    {
      "constant": false,
      "inputs": [],
      "name": "renounceOwnership",
      "outputs": [],
      "payable": false,
      "stateMutability": "nonpayable",
      "type": "function",
      "signature": "0x715018a6"
    },
    {
      "constant": true,
      "inputs": [],
      "name": "owner",
      "outputs": [
        {
          "name": "",
          "type": "address"
        }
      ],
      "payable": false,
      "stateMutability": "view",
      "type": "function",
      "signature": "0x8da5cb5b"
    },
    {
      "constant": true,
      "inputs": [],
      "name": "isOwner",
      "outputs": [
        {
          "name": "",
          "type": "bool"
        }
      ],
      "payable": false,
      "stateMutability": "view",
      "type": "function",
      "signature": "0x8f32d59b"
    },
    {
      "constant": true,
      "inputs": [],
      "name": "symbol",
      "outputs": [
        {
          "name": "",
          "type": "string"
        }
      ],
      "payable": false,
      "stateMutability": "view",
      "type": "function",
      "signature": "0x95d89b41"
    },
    {
      "constant": false,
      "inputs": [
        {
          "name": "_to",
          "type": "address"
        },
        {
          "name": "_value",
          "type": "uint256"
        }
      ],
      "name": "transfer",
      "outputs": [
        {
          "name": "",
          "type": "bool"
        }
      ],
      "payable": false,
      "stateMutability": "nonpayable",
      "type": "function",
      "signature": "0xa9059cbb"
    },
    {
      "constant": true,
      "inputs": [
        {
          "name": "_owner",
          "type": "address"
        },
        {
          "name": "_spender",
          "type": "address"
        }
      ],
      "name": "allowance",
      "outputs": [
        {
          "name": "",
          "type": "uint256"
        }
      ],
      "payable": false,
      "stateMutability": "view",
      "type": "function",
      "signature": "0xdd62ed3e"
    },
    {
      "constant": false,
      "inputs": [
        {
          "name": "newOwner",
          "type": "address"
        }
      ],
      "name": "transferOwnership",
      "outputs": [],
      "payable": false,
      "stateMutability": "nonpayable",
      "type": "function",
      "signature": "0xf2fde38b"
    },
    {
      "inputs": [
        {
          "name": "_maxSupply",
          "type": "uint256"
        },
        {
          "name": "_toMint",
          "type": "uint256"
        }
      ],
      "payable": false,
      "stateMutability": "nonpayable",
      "type": "constructor",
      "signature": "constructor"
    },
    {
      "payable": true,
      "stateMutability": "payable",
      "type": "fallback"
    },
    {
      "anonymous": false,
      "inputs": [
        {
          "indexed": true,
          "name": "_buyer",
          "type": "address"
        },
        {
          "indexed": false,
          "name": "_value",
          "type": "uint256"
        }
      ],
      "name": "TokenPurchase",
      "type": "event",
      "signature": "0xf4b351c7293f3c20fc9912c61adbe9823a6de3162bde18c98eb6feeae232f861"
    },
    {
      "anonymous": false,
      "inputs": [
        {
          "indexed": true,
          "name": "from",
          "type": "address"
        },
        {
          "indexed": true,
          "name": "to",
          "type": "address"
        },
        {
          "indexed": false,
          "name": "value",
          "type": "uint256"
        }
      ],
      "name": "Transfer",
      "type": "event",
      "signature": "0xddf252ad1be2c89b69c2b068fc378daa952ba7f163c4a11628f55a4df523b3ef"
    },
    {
      "anonymous": false,
      "inputs": [
        {
          "indexed": true,
          "name": "owner",
          "type": "address"
        },
        {
          "indexed": true,
          "name": "spender",
          "type": "address"
        },
        {
          "indexed": false,
          "name": "value",
          "type": "uint256"
        }
      ],
      "name": "Approval",
      "type": "event",
      "signature": "0x8c5be1e5ebec7d5bd14f71427d1e84f3dd0314c0f7b2291e5b200ac8c7c3b925"
    },
    {
      "anonymous": false,
      "inputs": [
        {
          "indexed": true,
          "name": "to",
          "type": "address"
        },
        {
          "indexed": false,
          "name": "amount",
          "type": "uint256"
        }
      ],
      "name": "Mint",
      "type": "event",
      "signature": "0x0f6798a560793a54c3bcfe86a93cde1e73087d944c0ea20544137d4121396885"
    },
    {
      "anonymous": false,
      "inputs": [
        {
          "indexed": true,
          "name": "previousOwner",
          "type": "address"
        },
        {
          "indexed": true,
          "name": "newOwner",
          "type": "address"
        }
      ],
      "name": "OwnershipTransferred",
      "type": "event",
      "signature": "0x8be0079c531659141344cd1fd0a4f28419497f9722a3daafe3b4186f6b6457e0"
    },
    {
      "constant": false,
      "inputs": [
        {
          "name": "_to",
          "type": "address"
        }
      ],
      "name": "buyTokens",
      "outputs": [
        {
          "name": "",
          "type": "bool"
        }
      ],
      "payable": true,
      "stateMutability": "payable",
      "type": "function",
      "signature": "0xec8ac4d8"
    },
    {
      "constant": true,
      "inputs": [],
      "name": "getRate",
      "outputs": [
        {
          "name": "",
          "type": "uint256"
        }
      ],
      "payable": false,
      "stateMutability": "view",
      "type": "function",
      "signature": "0x679aefce"
    }
  ],
  "bytecode": "0x60c0604052600a60808190527f544f4b454e204e414d450000000000000000000000000000000000000000000060a090815262000040916001919062000313565b506040805180820190915260068082527f53594d424f4c00000000000000000000000000000000000000000000000000006020909201918252620000879160029162000313565b506003805460ff1916905560006004556103e8600755348015620000aa57600080fd5b5060405160408062000f1c83398101806040526040811015620000cc57600080fd5b50805160209091015160008054600160a060020a0319163317808255604051600160a060020a039190911691907f8be0079c531659141344cd1fd0a4f28419497f9722a3daafe3b4186f6b6457e0908290a3600782905560088054600160a060020a031916339081179091556200014d908264010000000062000165810204565b15156200015957600080fd5b505043600955620003b5565b60006200017a64010000000062000285810204565b15156200018657600080fd5b600454620001a39083640100000000620009a26200029782021704565b600481905560075411620001b657600080fd5b600160a060020a038316600090815260066020526040902054620001e99083640100000000620009a26200029782021704565b600160a060020a038416600081815260066020908152604091829020939093558051858152905191927f0f6798a560793a54c3bcfe86a93cde1e73087d944c0ea20544137d412139688592918290030190a2604080518381529051600160a060020a038516916000917fddf252ad1be2c89b69c2b068fc378daa952ba7f163c4a11628f55a4df523b3ef9181900360200190a350600192915050565b600054600160a060020a031633145b90565b6000828201838110156200030c57604080517f08c379a000000000000000000000000000000000000000000000000000000000815260206004820152601b60248201527f536166654d6174683a206164646974696f6e206f766572666c6f770000000000604482015290519081900360640190fd5b9392505050565b828054600181600116156101000203166002900490600052602060002090601f016020900481019282601f106200035657805160ff191683800117855562000386565b8280016001018555821562000386579182015b828111156200038657825182559160200191906001019062000369565b506200039492915062000398565b5090565b6200029491905b808211156200039457600081556001016200039f565b610b5780620003c56000396000f3fe608060405260043610610110576000357c010000000000000000000000000000000000000000000000000000000090048063715018a6116100a7578063a9059cbb11610076578063a9059cbb1461037b578063dd62ed3e146103b4578063ec8ac4d8146103ef578063f2fde38b1461041557610110565b8063715018a6146103095780638da5cb5b146103205780638f32d59b1461035157806395d89b411461036657610110565b8063313ce567116100e3578063313ce5671461025d57806340c10f1914610288578063679aefce146102c157806370a08231146102d657610110565b806306fdde031461011c578063095ea7b3146101a657806318160ddd146101f357806323b872dd1461021a575b61011933610448565b50005b34801561012857600080fd5b50610131610525565b6040805160208082528351818301528351919283929083019185019080838360005b8381101561016b578181015183820152602001610153565b50505050905090810190601f1680156101985780820380516001836020036101000a031916815260200191505b509250505060405180910390f35b3480156101b257600080fd5b506101df600480360360408110156101c957600080fd5b50600160a060020a0381351690602001356105b2565b604080519115158252519081900360200190f35b3480156101ff57600080fd5b506102086105bb565b60408051918252519081900360200190f35b34801561022657600080fd5b506101df6004803603606081101561023d57600080fd5b50600160a060020a038135811691602081013590911690604001356105c1565b34801561026957600080fd5b506102726105ca565b6040805160ff9092168252519081900360200190f35b34801561029457600080fd5b506101df600480360360408110156102ab57600080fd5b50600160a060020a0381351690602001356105d3565b3480156102cd57600080fd5b506102086106d2565b3480156102e257600080fd5b50610208600480360360208110156102f957600080fd5b5035600160a060020a031661071d565b34801561031557600080fd5b5061031e610738565b005b34801561032c57600080fd5b506103356107a2565b60408051600160a060020a039092168252519081900360200190f35b34801561035d57600080fd5b506101df6107b1565b34801561037257600080fd5b506101316107c2565b34801561038757600080fd5b506101df6004803603604081101561039e57600080fd5b50600160a060020a03813516906020013561081a565b3480156103c057600080fd5b50610208600480360360408110156103d757600080fd5b50600160a060020a03813581169160200135166108fd565b6101df6004803603602081101561040557600080fd5b5035600160a060020a0316610448565b34801561042157600080fd5b5061031e6004803603602081101561043857600080fd5b5035600160a060020a0316610905565b6009546000906107d001431161045d57600080fd5b600160a060020a038216151561047257600080fd5b600061048c61047f6106d2565b349063ffffffff61092416565b905061049883826105d3565b15156104a357600080fd5b600854604051600160a060020a03909116903480156108fc02916000818181858888f193505050501580156104dc573d6000803e3d6000fd5b50604080518281529051600160a060020a038516917ff4b351c7293f3c20fc9912c61adbe9823a6de3162bde18c98eb6feeae232f861919081900360200190a250600192915050565b60018054604080516020600284861615610100026000190190941693909304601f810184900484028201840190925281815292918301828280156105aa5780601f1061057f576101008083540402835291602001916105aa565b820191906000526020600020905b81548152906001019060200180831161058d57829003601f168201915b505050505081565b60015b92915050565b60045481565b60019392505050565b60035460ff1681565b60006105dd6107b1565b15156105e857600080fd5b6004546105fb908363ffffffff6109a216565b60048190556007541161060d57600080fd5b600160a060020a038316600090815260066020526040902054610636908363ffffffff6109a216565b600160a060020a038416600081815260066020908152604091829020939093558051858152905191927f0f6798a560793a54c3bcfe86a93cde1e73087d944c0ea20544137d412139688592918290030190a2604080518381529051600160a060020a038516916000917fddf252ad1be2c89b69c2b068fc378daa952ba7f163c4a11628f55a4df523b3ef9181900360200190a350600192915050565b60006009546103e8014311156106ea5750600561071a565b6009546102ee014311156107005750600661071a565b6009546101f4014311156107165750600761071a565b5060085b90565b600160a060020a031660009081526006602052604090205490565b6107406107b1565b151561074b57600080fd5b60008054604051600160a060020a03909116907f8be0079c531659141344cd1fd0a4f28419497f9722a3daafe3b4186f6b6457e0908390a36000805473ffffffffffffffffffffffffffffffffffffffff19169055565b600054600160a060020a031690565b600054600160a060020a0316331490565b6002805460408051602060018416156101000260001901909316849004601f810184900484028201840190925281815292918301828280156105aa5780601f1061057f576101008083540402835291602001916105aa565b6000600160a060020a038316151561083157600080fd5b3360009081526006602052604090205482111561084d57600080fd5b3360009081526006602052604090205461086d908363ffffffff610a1616565b3360009081526006602052604080822092909255600160a060020a0385168152205461089f908363ffffffff6109a216565b600160a060020a0384166000818152600660209081526040918290209390935580518581529051919233927fddf252ad1be2c89b69c2b068fc378daa952ba7f163c4a11628f55a4df523b3ef9281900390910190a350600192915050565b600092915050565b61090d6107b1565b151561091857600080fd5b61092181610a8d565b50565b6000821515610935575060006105b5565b82820282848281151561094457fe5b041461099b576040517f08c379a0000000000000000000000000000000000000000000000000000000008152600401808060200182810382526021815260200180610b0b6021913960400191505060405180910390fd5b9392505050565b60008282018381101561099b57604080517f08c379a000000000000000000000000000000000000000000000000000000000815260206004820152601b60248201527f536166654d6174683a206164646974696f6e206f766572666c6f770000000000604482015290519081900360640190fd5b600082821115610a8757604080517f08c379a000000000000000000000000000000000000000000000000000000000815260206004820152601e60248201527f536166654d6174683a207375627472616374696f6e206f766572666c6f770000604482015290519081900360640190fd5b50900390565b600160a060020a0381161515610aa257600080fd5b60008054604051600160a060020a03808516939216917f8be0079c531659141344cd1fd0a4f28419497f9722a3daafe3b4186f6b6457e091a36000805473ffffffffffffffffffffffffffffffffffffffff1916600160a060020a039290921691909117905556fe536166654d6174683a206d756c7469706c69636174696f6e206f766572666c6f77a165627a7a7230582016ebb72cd8be41963ee780d53ba91a18f937cb09bbeb97c0f6b2c7582f57829b0029",
  "source": "\n\npragma solidity ^0.5.4;\n\nimport \"./SimpleToken.sol\";\n\ncontract SimpleCrowdfund is SimpleToken {\n\n    // Token purchase event\n    event TokenPurchase(address indexed _buyer, uint256 _value);\n\n    // OwnerWallet address, all ETH gets transfered to him automatically\n    address payable ownerWallet;\n    // StartBlock is the block where the contract gets mined\n    uint256 startBlock;\n\n    // Constructor function\n    constructor(uint256 _maxSupply, uint256 _toMint) public {\n        maxSupply = _maxSupply;\n        ownerWallet = msg.sender;\n        require(mint(msg.sender, _toMint));\n        startBlock = block.number;\n    }\n\n    // Function that actually buys the tokens\n    function buyTokens(address _to) public payable returns (bool) {\n        // Crowdsfund ends if current block number is abve 2000\n        require(block.number > startBlock + 2000);\n        // Ensure the address passed is valid\n        require(address(_to) != address(0));\n        // Get the amount of tokens\n        uint256 amount = msg.value.mul(getRate());\n        // Ensure the minting works\n        require(mint(_to, amount));\n        // Transfer to the owner wallet the ETH sent\n        ownerWallet.transfer(msg.value);\n        // Emist an event\n        emit TokenPurchase(_to, amount);\n        return true;\n    }\n\n    // GetRate returns the rate of the tokens based on the current block\n    function getRate() public view returns (uint256) {\n\n        if (block.number > (startBlock + 1000)) {\n            return 5;\n        } else if (block.number > (startBlock + 750)) {\n            return 6;\n        } else if (block.number > (startBlock + 500)) {\n            return 7;\n        } else {\n            return 8;\n        }\n    }\n\n    // If user simply send ETH, call buy tokens with the message sender\n    function() external payable {\n        buyTokens(msg.sender);\n    }\n\n}\n\n",
  "sourcePath": "/home/dev43/blockchain/ethinitium/modules/dapp/simple_crowdfund_dapp/contracts/SimpleCrowdfund.sol",
  "compiler": {
    "name": "solc",
    "version": "0.5.4+commit.9549d8ff.Emscripten.clang"
  },
  "schemaVersion": "3.0.1",
  "updatedAt": "2019-06-05T03:25:40.299Z",
  "devdoc": {
    "methods": {
      "isOwner()": {
        "return": "true if `msg.sender` is the owner of the contract."
      },
      "owner()": {
        "return": "the address of the owner."
      },
      "renounceOwnership()": {
        "details": "Allows the current owner to relinquish control of the contract. It will not be possible to call the functions with the `onlyOwner` modifier anymore."
      },
      "transferOwnership(address)": {
        "details": "Allows the current owner to transfer control of the contract to a newOwner.",
        "params": {
          "newOwner": "The address to transfer ownership to."
        }
      }
    }
  },
  "userdoc": {
    "methods": {
      "renounceOwnership()": {
        "notice": "Renouncing ownership will leave the contract without an owner, thereby removing any functionality that is only available to the owner."
      }
    }
  }
}