{
  "contractName": "SimpleToken",
  "abi": [
    {
      "constant": true,
      "inputs": [],
      "name": "name",
      "outputs": [
        {
          "name": "",
          "type": "string"
        }
      ],
      "payable": false,
      "stateMutability": "view",
      "type": "function"
    },
    {
      "constant": true,
      "inputs": [],
      "name": "totalSupply",
      "outputs": [
        {
          "name": "",
          "type": "uint256"
        }
      ],
      "payable": false,
      "stateMutability": "view",
      "type": "function"
    },
    {
      "constant": true,
      "inputs": [],
      "name": "decimals",
      "outputs": [
        {
          "name": "",
          "type": "uint8"
        }
      ],
      "payable": false,
      "stateMutability": "view",
      "type": "function"
    },
    {
      "constant": false,
      "inputs": [],
      "name": "renounceOwnership",
      "outputs": [],
      "payable": false,
      "stateMutability": "nonpayable",
      "type": "function"
    },
    {
      "constant": true,
      "inputs": [],
      "name": "owner",
      "outputs": [
        {
          "name": "",
          "type": "address"
        }
      ],
      "payable": false,
      "stateMutability": "view",
      "type": "function"
    },
    {
      "constant": true,
      "inputs": [],
      "name": "isOwner",
      "outputs": [
        {
          "name": "",
          "type": "bool"
        }
      ],
      "payable": false,
      "stateMutability": "view",
      "type": "function"
    },
    {
      "constant": true,
      "inputs": [],
      "name": "symbol",
      "outputs": [
        {
          "name": "",
          "type": "string"
        }
      ],
      "payable": false,
      "stateMutability": "view",
      "type": "function"
    },
    {
      "constant": false,
      "inputs": [
        {
          "name": "newOwner",
          "type": "address"
        }
      ],
      "name": "transferOwnership",
      "outputs": [],
      "payable": false,
      "stateMutability": "nonpayable",
      "type": "function"
    },
    {
      "anonymous": false,
      "inputs": [
        {
          "indexed": true,
          "name": "from",
          "type": "address"
        },
        {
          "indexed": true,
          "name": "to",
          "type": "address"
        },
        {
          "indexed": false,
          "name": "value",
          "type": "uint256"
        }
      ],
      "name": "Transfer",
      "type": "event"
    },
    {
      "anonymous": false,
      "inputs": [
        {
          "indexed": true,
          "name": "owner",
          "type": "address"
        },
        {
          "indexed": true,
          "name": "spender",
          "type": "address"
        },
        {
          "indexed": false,
          "name": "value",
          "type": "uint256"
        }
      ],
      "name": "Approval",
      "type": "event"
    },
    {
      "anonymous": false,
      "inputs": [
        {
          "indexed": true,
          "name": "to",
          "type": "address"
        },
        {
          "indexed": false,
          "name": "amount",
          "type": "uint256"
        }
      ],
      "name": "Mint",
      "type": "event"
    },
    {
      "anonymous": false,
      "inputs": [
        {
          "indexed": true,
          "name": "previousOwner",
          "type": "address"
        },
        {
          "indexed": true,
          "name": "newOwner",
          "type": "address"
        }
      ],
      "name": "OwnershipTransferred",
      "type": "event"
    },
    {
      "constant": false,
      "inputs": [
        {
          "name": "_from",
          "type": "address"
        },
        {
          "name": "_to",
          "type": "address"
        },
        {
          "name": "_value",
          "type": "uint256"
        }
      ],
      "name": "transferFrom",
      "outputs": [
        {
          "name": "",
          "type": "bool"
        }
      ],
      "payable": false,
      "stateMutability": "nonpayable",
      "type": "function"
    },
    {
      "constant": false,
      "inputs": [
        {
          "name": "_spender",
          "type": "address"
        },
        {
          "name": "_value",
          "type": "uint256"
        }
      ],
      "name": "approve",
      "outputs": [
        {
          "name": "",
          "type": "bool"
        }
      ],
      "payable": false,
      "stateMutability": "nonpayable",
      "type": "function"
    },
    {
      "constant": true,
      "inputs": [
        {
          "name": "_owner",
          "type": "address"
        },
        {
          "name": "_spender",
          "type": "address"
        }
      ],
      "name": "allowance",
      "outputs": [
        {
          "name": "",
          "type": "uint256"
        }
      ],
      "payable": false,
      "stateMutability": "view",
      "type": "function"
    },
    {
      "constant": true,
      "inputs": [
        {
          "name": "_owner",
          "type": "address"
        }
      ],
      "name": "balanceOf",
      "outputs": [
        {
          "name": "balance",
          "type": "uint256"
        }
      ],
      "payable": false,
      "stateMutability": "view",
      "type": "function"
    },
    {
      "constant": false,
      "inputs": [
        {
          "name": "_to",
          "type": "address"
        },
        {
          "name": "_value",
          "type": "uint256"
        }
      ],
      "name": "transfer",
      "outputs": [
        {
          "name": "",
          "type": "bool"
        }
      ],
      "payable": false,
      "stateMutability": "nonpayable",
      "type": "function"
    }
  ],
  "bytecode": "0x60c0604052600a60808190527f544f4b454e204e414d450000000000000000000000000000000000000000000060a090815261003e91600191906100e9565b506040805180820190915260068082527f53594d424f4c00000000000000000000000000000000000000000000000000006020909201918252610083916002916100e9565b506003805460ff19169055600060048190556305f5e1006007558054600160a060020a0319163317808255604051600160a060020a039190911691907f8be0079c531659141344cd1fd0a4f28419497f9722a3daafe3b4186f6b6457e0908290a3610184565b828054600181600116156101000203166002900490600052602060002090601f016020900481019282601f1061012a57805160ff1916838001178555610157565b82800160010185558215610157579182015b8281111561015757825182559160200191906001019061013c565b50610163929150610167565b5090565b61018191905b80821115610163576000815560010161016d565b90565b61074f806101936000396000f3fe608060405234801561001057600080fd5b50600436106100ec576000357c010000000000000000000000000000000000000000000000000000000090048063715018a6116100a957806395d89b411161008357806395d89b4114610278578063a9059cbb14610280578063dd62ed3e146102ac578063f2fde38b146102da576100ec565b8063715018a6146102425780638da5cb5b1461024c5780638f32d59b14610270576100ec565b806306fdde03146100f1578063095ea7b31461016e57806318160ddd146101ae57806323b872dd146101c8578063313ce567146101fe57806370a082311461021c575b600080fd5b6100f9610300565b6040805160208082528351818301528351919283929083019185019080838360005b8381101561013357818101518382015260200161011b565b50505050905090810190601f1680156101605780820380516001836020036101000a031916815260200191505b509250505060405180910390f35b61019a6004803603604081101561018457600080fd5b50600160a060020a03813516906020013561038d565b604080519115158252519081900360200190f35b6101b6610395565b60408051918252519081900360200190f35b61019a600480360360608110156101de57600080fd5b50600160a060020a0381358116916020810135909116906040013561039b565b6102066103a4565b6040805160ff9092168252519081900360200190f35b6101b66004803603602081101561023257600080fd5b5035600160a060020a03166103ad565b61024a6103c8565b005b610254610432565b60408051600160a060020a039092168252519081900360200190f35b61019a610441565b6100f9610452565b61019a6004803603604081101561029657600080fd5b50600160a060020a0381351690602001356104aa565b6101b6600480360360408110156102c257600080fd5b50600160a060020a038135811691602001351661058d565b61024a600480360360208110156102f057600080fd5b5035600160a060020a0316610595565b60018054604080516020600284861615610100026000190190941693909304601f810184900484028201840190925281815292918301828280156103855780601f1061035a57610100808354040283529160200191610385565b820191906000526020600020905b81548152906001019060200180831161036857829003601f168201915b505050505081565b600192915050565b60045481565b60019392505050565b60035460ff1681565b600160a060020a031660009081526006602052604090205490565b6103d0610441565b15156103db57600080fd5b60008054604051600160a060020a03909116907f8be0079c531659141344cd1fd0a4f28419497f9722a3daafe3b4186f6b6457e0908390a36000805473ffffffffffffffffffffffffffffffffffffffff19169055565b600054600160a060020a031690565b600054600160a060020a0316331490565b6002805460408051602060018416156101000260001901909316849004601f810184900484028201840190925281815292918301828280156103855780601f1061035a57610100808354040283529160200191610385565b6000600160a060020a03831615156104c157600080fd5b336000908152600660205260409020548211156104dd57600080fd5b336000908152600660205260409020546104fd908363ffffffff6105b416565b3360009081526006602052604080822092909255600160a060020a0385168152205461052f908363ffffffff61062b16565b600160a060020a0384166000818152600660209081526040918290209390935580518581529051919233927fddf252ad1be2c89b69c2b068fc378daa952ba7f163c4a11628f55a4df523b3ef9281900390910190a350600192915050565b600092915050565b61059d610441565b15156105a857600080fd5b6105b1816106a6565b50565b60008282111561062557604080517f08c379a000000000000000000000000000000000000000000000000000000000815260206004820152601e60248201527f536166654d6174683a207375627472616374696f6e206f766572666c6f770000604482015290519081900360640190fd5b50900390565b60008282018381101561069f57604080517f08c379a000000000000000000000000000000000000000000000000000000000815260206004820152601b60248201527f536166654d6174683a206164646974696f6e206f766572666c6f770000000000604482015290519081900360640190fd5b9392505050565b600160a060020a03811615156106bb57600080fd5b60008054604051600160a060020a03808516939216917f8be0079c531659141344cd1fd0a4f28419497f9722a3daafe3b4186f6b6457e091a36000805473ffffffffffffffffffffffffffffffffffffffff1916600160a060020a039290921691909117905556fea165627a7a72305820d8a6cfd005f767005c93d16fc95f2f506992824293fdc55995241e5f7fec4ca80029",
  "source": "\n\npragma solidity ^0.5.4;\n\nimport \"./library/SafeMath.sol\";\nimport \"./library/Ownable.sol\";\n\ncontract SimpleToken is Ownable {\n\n    using SafeMath for uint256;\n\n    /* ERC20 INTERFACE */\n    string public name = \"TOKEN NAME\";\n    string public symbol = \"SYMBOL\";\n    uint8 public decimals = 0;\n    uint256 public totalSupply = 0;\n\n    mapping (address => mapping (address => uint256)) internal allowed;\n    mapping(address => uint256) balances;\n\n    event Transfer(address indexed from, address indexed to, uint256 value);\n    event Approval(address indexed owner, address indexed spender, uint256 value);\n    event Mint(address indexed to, uint256 amount);\n\n\n    // Not implemented\n    function transferFrom(address _from, address _to, uint256 _value) public returns (bool) { return true; }\n    function approve(address _spender, uint256 _value) public returns (bool) { return true; }\n    function allowance(address _owner, address _spender) public view returns (uint256) { return 0; }\n\n    function balanceOf(address _owner) public view returns (uint256 balance) {\n        return balances[_owner];\n    }\n\n    function transfer(address _to, uint256 _value) public returns (bool) {\n        require(_to != address(0));\n        require(_value <= balances[msg.sender]);\n        balances[msg.sender] = balances[msg.sender].sub(_value);\n        balances[_to] = balances[_to].add(_value);\n        emit Transfer(msg.sender, _to, _value);\n        return true;\n    }\n\n    /* END OF ERC20 INTERFACE */\n\n    // Default max supply is 1000\n    uint256 maxSupply = 100000000;\n\n    // Minting function, adds tokens to our total supply\n    function mint(address _to, uint256 _amount) internal returns (bool) {\n        // Add to the total supply\n        totalSupply = totalSupply.add(_amount);\n        // Ensure it is less than the max supply\n        require(totalSupply <= maxSupply, \"max supply reached\");\n        // Add to balance\n        balances[_to] = balances[_to].add(_amount);\n        // Emit events\n        emit Mint(_to, _amount);\n        emit Transfer(address(0), _to, _amount);\n        return true;\n    }\n\n}",
  "sourcePath": "/home/dev43/blockchain/ethinitium/modules/dapp/simple_crowdfund_dapp/contracts/SimpleToken.sol",
  "compiler": {
    "name": "solc",
    "version": "0.5.4+commit.9549d8ff.Emscripten.clang"
  },
  "schemaVersion": "3.0.1",
  "updatedAt": "2019-06-05T16:19:52.728Z",
  "devdoc": {
    "methods": {
      "isOwner()": {
        "return": "true if `msg.sender` is the owner of the contract."
      },
      "owner()": {
        "return": "the address of the owner."
      },
      "renounceOwnership()": {
        "details": "Allows the current owner to relinquish control of the contract. It will not be possible to call the functions with the `onlyOwner` modifier anymore."
      },
      "transferOwnership(address)": {
        "details": "Allows the current owner to transfer control of the contract to a newOwner.",
        "params": {
          "newOwner": "The address to transfer ownership to."
        }
      }
    }
  },
  "userdoc": {
    "methods": {
      "renounceOwnership()": {
        "notice": "Renouncing ownership will leave the contract without an owner, thereby removing any functionality that is only available to the owner."
      }
    }
  }
}